{"contracts/QuizLens.sol":{"QuizLens":{"abi":[{"anonymous":false,"inputs":[{"indexed":true,"internalType":"bytes32","name":"paperHash","type":"bytes32"},{"indexed":true,"internalType":"address","name":"setter","type":"address"},{"indexed":false,"internalType":"string","name":"title","type":"string"}],"name":"Notarized","type":"event"},{"inputs":[{"internalType":"bytes32","name":"paperHash","type":"bytes32"},{"internalType":"bytes32","name":"reportHash","type":"bytes32"},{"internalType":"string","name":"title","type":"string"}],"name":"notarize","outputs":[],"stateMutability":"nonpayable","type":"function"},{"inputs":[{"internalType":"bytes32","name":"paperHash","type":"bytes32"}],"name":"verify","outputs":[{"internalType":"bool","name":"valid","type":"bool"},{"internalType":"address","name":"setter","type":"address"},{"internalType":"bytes32","name":"reportHash","type":"bytes32"},{"internalType":"uint256","name":"timestamp","type":"uint256"},{"internalType":"string","name":"title","type":"string"}],"stateMutability":"view","type":"function"}],"evm":{"bytecode":{"linkReferences":{},"object":"608060405234801561001057600080fd5b50610558806100206000396000f3fe608060405234801561001057600080fd5b50600436106100365760003560e01c806375e366161461003b5780639755940b14610068575b600080fd5b61004e610049366004610286565b61007d565b60405161005f95949392919061029f565b60405180910390f35b61007b610076366004610314565b61015e565b005b6000818152602081905260408120805460018201546002830154600384018054869586958695606095929460ff8316946101009093046001600160a01b031693919281906100ca90610394565b80601f01602080910402602001604051908101604052809291908181526020018280546100f690610394565b80156101435780601f1061011857610100808354040283529160200191610143565b820191906000526020600020905b81548152906001019060200180831161012657829003601f168201915b50505050509050955095509550955095505091939590929450565b6040518060a00160405280600115158152602001336001600160a01b0316815260200184815260200142815260200183838080601f0160208091040260200160405190810160405280939291908181526020018383808284376000920182905250939094525050868152602081815260409182902084518154928601516001600160a81b0319909316901515610100600160a81b031916176101006001600160a01b039093169290920291909117815590830151600182015560608301516002820155608083015190915060038201906102389082610433565b50905050336001600160a01b0316847f70a0d3c91852c418811b02c48812447497c35c5dd710185115d35b3a70063cc884846040516102789291906104f3565b60405180910390a350505050565b60006020828403121561029857600080fd5b5035919050565b85151581526000602060018060a01b0387168184015285604084015284606084015260a0608084015283518060a085015260005b818110156102ef5785810183015185820160c0015282016102d3565b50600060c0828601015260c0601f19601f830116850101925050509695505050505050565b6000806000806060858703121561032a57600080fd5b8435935060208501359250604085013567ffffffffffffffff8082111561035057600080fd5b818701915087601f83011261036457600080fd5b81358181111561037357600080fd5b88602082850101111561038557600080fd5b95989497505060200194505050565b600181811c908216806103a857607f821691505b6020821081036103c857634e487b7160e01b600052602260045260246000fd5b50919050565b634e487b7160e01b600052604160045260246000fd5b601f82111561042e57600081815260208120601f850160051c8101602086101561040b5750805b601f850160051c820191505b8181101561042a57828155600101610417565b5050505b505050565b815167ffffffffffffffff81111561044d5761044d6103ce565b6104618161045b8454610394565b846103e4565b602080601f831160018114610496576000841561047e5750858301515b600019600386901b1c1916600185901b17855561042a565b600085815260208120601f198616915b828110156104c5578886015182559484019460019091019084016104a6565b50858210156104e35787850151600019600388901b60f8161c191681555b5050505050600190811b01905550565b60208152816020820152818360408301376000818301604090810191909152601f909201601f1916010191905056fea2646970667358221220286dab2b02b29ac61bb264288f6dc0e25e3845a59362877b9fdff6e21e14e14964736f6c63430008130033","opcodes":"PUSH1 0x80 PUSH1 0x40 MSTORE CALLVALUE DUP1 ISZERO PUSH2 0x10 JUMPI PUSH1 0x0 DUP1 REVERT JUMPDEST POP PUSH2 0x558 DUP1 PUSH2 0x20 PUSH1 0x0 CODECOPY PUSH1 0x0 RETURN INVALID PUSH1 0x80 PUSH1 0x40 MSTORE CALLVALUE DUP1 ISZERO PUSH2 0x10 JUMPI PUSH1 0x0 DUP1 REVERT JUMPDEST POP PUSH1 0x4 CALLDATASIZE LT PUSH2 0x36 JUMPI PUSH1 0x0 CALLDATALOAD PUSH1 0xE0 SHR DUP1 PUSH4 0x75E36616 EQ PUSH2 0x3B JUMPI DUP1 PUSH4 0x9755940B EQ PUSH2 0x68 JUMPI JUMPDEST PUSH1 0x0 DUP1 REVERT JUMPDEST PUSH2 0x4E PUSH2 0x49 CALLDATASIZE PUSH1 0x4 PUSH2 0x286 JUMP JUMPDEST PUSH2 0x7D JUMP JUMPDEST PUSH1 0x40 MLOAD PUSH2 0x5F SWAP6 SWAP5 SWAP4 SWAP3 SWAP2 SWAP1 PUSH2 0x29F JUMP JUMPDEST PUSH1 0x40 MLOAD DUP1 SWAP2 SUB SWAP1 RETURN JUMPDEST PUSH2 0x7B PUSH2 0x76 CALLDATASIZE PUSH1 0x4 PUSH2 0x314 JUMP JUMPDEST PUSH2 0x15E JUMP JUMPDEST STOP JUMPDEST PUSH1 0x0 DUP2 DUP2 MSTORE PUSH1 0x20 DUP2 SWAP1 MSTORE PUSH1 0x40 DUP2 KECCAK256 DUP1 SLOAD PUSH1 0x1 DUP3 ADD SLOAD PUSH1 0x2 DUP4 ADD SLOAD PUSH1 0x3 DUP5 ADD DUP1 SLOAD DUP7 SWAP6 DUP7 SWAP6 DUP7 SWAP6 PUSH1 0x60 SWAP6 SWAP3 SWAP5 PUSH1 0xFF DUP4 AND SWAP5 PUSH2 0x100 SWAP1 SWAP4 DIV PUSH1 0x1 PUSH1 0x1 PUSH1 0xA0 SHL SUB AND SWAP4 SWAP2 SWAP3 DUP2 SWAP1 PUSH2 0xCA SWAP1 PUSH2 0x394 JUMP JUMPDEST DUP1 PUSH1 0x1F ADD PUSH1 0x20 DUP1 SWAP2 DIV MUL PUSH1 0x20 ADD PUSH1 0x40 MLOAD SWAP1 DUP2 ADD PUSH1 0x40 MSTORE DUP1 SWAP3 SWAP2 SWAP1 DUP2 DUP2 MSTORE PUSH1 0x20 ADD DUP3 DUP1 SLOAD PUSH2 0xF6 SWAP1 PUSH2 0x394 JUMP JUMPDEST DUP1 ISZERO PUSH2 0x143 JUMPI DUP1 PUSH1 0x1F LT PUSH2 0x118 JUMPI PUSH2 0x100 DUP1 DUP4 SLOAD DIV MUL DUP4 MSTORE SWAP2 PUSH1 0x20 ADD SWAP2 PUSH2 0x143 JUMP JUMPDEST DUP3 ADD SWAP2 SWAP1 PUSH1 0x0 MSTORE PUSH1 0x20 PUSH1 0x0 KECCAK256 SWAP1 JUMPDEST DUP2 SLOAD DUP2 MSTORE SWAP1 PUSH1 0x1 ADD SWAP1 PUSH1 0x20 ADD DUP1 DUP4 GT PUSH2 0x126 JUMPI DUP3 SWAP1 SUB PUSH1 0x1F AND DUP3 ADD SWAP2 JUMPDEST POP POP POP POP POP SWAP1 POP SWAP6 POP SWAP6 POP SWAP6 POP SWAP6 POP SWAP6 POP POP SWAP2 SWAP4 SWAP6 SWAP1 SWAP3 SWAP5 POP JUMP JUMPDEST PUSH1 0x40 MLOAD DUP1 PUSH1 0xA0 ADD PUSH1 0x40 MSTORE DUP1 PUSH1 0x1 ISZERO ISZERO DUP2 MSTORE PUSH1 0x20 ADD CALLER PUSH1 0x1 PUSH1 0x1 PUSH1 0xA0 SHL SUB AND DUP2 MSTORE PUSH1 0x20 ADD DUP5 DUP2 MSTORE PUSH1 0x20 ADD TIMESTAMP DUP2 MSTORE PUSH1 0x20 ADD DUP4 DUP4 DUP1 DUP1 PUSH1 0x1F ADD PUSH1 0x20 DUP1 SWAP2 DIV MUL PUSH1 0x20 ADD PUSH1 0x40 MLOAD SWAP1 DUP2 ADD PUSH1 0x40 MSTORE DUP1 SWAP4 SWAP3 SWAP2 SWAP1 DUP2 DUP2 MSTORE PUSH1 0x20 ADD DUP4 DUP4 DUP1 DUP3 DUP5 CALLDATACOPY PUSH1 0x0 SWAP3 ADD DUP3 SWAP1 MSTORE POP SWAP4 SWAP1 SWAP5 MSTORE POP POP DUP7 DUP2 MSTORE PUSH1 0x20 DUP2 DUP2 MSTORE PUSH1 0x40 SWAP2 DUP3 SWAP1 KECCAK256 DUP5 MLOAD DUP2 SLOAD SWAP3 DUP7 ADD MLOAD PUSH1 0x1 PUSH1 0x1 PUSH1 0xA8 SHL SUB NOT SWAP1 SWAP4 AND SWAP1 ISZERO ISZERO PUSH2 0x100 PUSH1 0x1 PUSH1 0xA8 SHL SUB NOT AND OR PUSH2 0x100 PUSH1 0x1 PUSH1 0x1 PUSH1 0xA0 SHL SUB SWAP1 SWAP4 AND SWAP3 SWAP1 SWAP3 MUL SWAP2 SWAP1 SWAP2 OR DUP2 SSTORE SWAP1 DUP4 ADD MLOAD PUSH1 0x1 DUP3 ADD SSTORE PUSH1 0x60 DUP4 ADD MLOAD PUSH1 0x2 DUP3 ADD SSTORE PUSH1 0x80 DUP4 ADD MLOAD SWAP1 SWAP2 POP PUSH1 0x3 DUP3 ADD SWAP1 PUSH2 0x238 SWAP1 DUP3 PUSH2 0x433 JUMP JUMPDEST POP SWAP1 POP POP CALLER PUSH1 0x1 PUSH1 0x1 PUSH1 0xA0 SHL SUB AND DUP5 PUSH32 0x70A0D3C91852C418811B02C48812447497C35C5DD710185115D35B3A70063CC8 DUP5 DUP5 PUSH1 0x40 MLOAD PUSH2 0x278 SWAP3 SWAP2 SWAP1 PUSH2 0x4F3 JUMP JUMPDEST PUSH1 0x40 MLOAD DUP1 SWAP2 SUB SWAP1 LOG3 POP POP POP POP JUMP JUMPDEST PUSH1 0x0 PUSH1 0x20 DUP3 DUP5 SUB SLT ISZERO PUSH2 0x298 JUMPI PUSH1 0x0 DUP1 REVERT JUMPDEST POP CALLDATALOAD SWAP2 SWAP1 POP JUMP JUMPDEST DUP6 ISZERO ISZERO DUP2 MSTORE PUSH1 0x0 PUSH1 0x20 PUSH1 0x1 DUP1 PUSH1 0xA0 SHL SUB DUP8 AND DUP2 DUP5 ADD MSTORE DUP6 PUSH1 0x40 DUP5 ADD MSTORE DUP5 PUSH1 0x60 DUP5 ADD MSTORE PUSH1 0xA0 PUSH1 0x80 DUP5 ADD MSTORE DUP4 MLOAD DUP1 PUSH1 0xA0 DUP6 ADD MSTORE PUSH1 0x0 JUMPDEST DUP2 DUP2 LT ISZERO PUSH2 0x2EF JUMPI DUP6 DUP2 ADD DUP4 ADD MLOAD DUP6 DUP3 ADD PUSH1 0xC0 ADD MSTORE DUP3 ADD PUSH2 0x2D3 JUMP JUMPDEST POP PUSH1 0x0 PUSH1 0xC0 DUP3 DUP7 ADD ADD MSTORE PUSH1 0xC0 PUSH1 0x1F NOT PUSH1 0x1F DUP4 ADD AND DUP6 ADD ADD SWAP3 POP POP POP SWAP7 SWAP6 POP POP POP POP POP POP JUMP JUMPDEST PUSH1 0x0 DUP1 PUSH1 0x0 DUP1 PUSH1 0x60 DUP6 DUP8 SUB SLT ISZERO PUSH2 0x32A JUMPI PUSH1 0x0 DUP1 REVERT JUMPDEST DUP5 CALLDATALOAD SWAP4 POP PUSH1 0x20 DUP6 ADD CALLDATALOAD SWAP3 POP PUSH1 0x40 DUP6 ADD CALLDATALOAD PUSH8 0xFFFFFFFFFFFFFFFF DUP1 DUP3 GT ISZERO PUSH2 0x350 JUMPI PUSH1 0x0 DUP1 REVERT JUMPDEST DUP2 DUP8 ADD SWAP2 POP DUP8 PUSH1 0x1F DUP4 ADD SLT PUSH2 0x364 JUMPI PUSH1 0x0 DUP1 REVERT JUMPDEST DUP2 CALLDATALOAD DUP2 DUP2 GT ISZERO PUSH2 0x373 JUMPI PUSH1 0x0 DUP1 REVERT JUMPDEST DUP9 PUSH1 0x20 DUP3 DUP6 ADD ADD GT ISZERO PUSH2 0x385 JUMPI PUSH1 0x0 DUP1 REVERT JUMPDEST SWAP6 SWAP9 SWAP5 SWAP8 POP POP PUSH1 0x20 ADD SWAP5 POP POP POP JUMP JUMPDEST PUSH1 0x1 DUP2 DUP2 SHR SWAP1 DUP3 AND DUP1 PUSH2 0x3A8 JUMPI PUSH1 0x7F DUP3 AND SWAP2 POP JUMPDEST PUSH1 0x20 DUP3 LT DUP2 SUB PUSH2 0x3C8 JUMPI PUSH4 0x4E487B71 PUSH1 0xE0 SHL PUSH1 0x0 MSTORE PUSH1 0x22 PUSH1 0x4 MSTORE PUSH1 0x24 PUSH1 0x0 REVERT JUMPDEST POP SWAP2 SWAP1 POP JUMP JUMPDEST PUSH4 0x4E487B71 PUSH1 0xE0 SHL PUSH1 0x0 MSTORE PUSH1 0x41 PUSH1 0x4 MSTORE PUSH1 0x24 PUSH1 0x0 REVERT JUMPDEST PUSH1 0x1F DUP3 GT ISZERO PUSH2 0x42E JUMPI PUSH1 0x0 DUP2 DUP2 MSTORE PUSH1 0x20 DUP2 KECCAK256 PUSH1 0x1F DUP6 ADD PUSH1 0x5 SHR DUP2 ADD PUSH1 0x20 DUP7 LT ISZERO PUSH2 0x40B JUMPI POP DUP1 JUMPDEST PUSH1 0x1F DUP6 ADD PUSH1 0x5 SHR DUP3 ADD SWAP2 POP JUMPDEST DUP2 DUP2 LT ISZERO PUSH2 0x42A JUMPI DUP3 DUP2 SSTORE PUSH1 0x1 ADD PUSH2 0x417 JUMP JUMPDEST POP POP POP JUMPDEST POP POP POP JUMP JUMPDEST DUP2 MLOAD PUSH8 0xFFFFFFFFFFFFFFFF DUP2 GT ISZERO PUSH2 0x44D JUMPI PUSH2 0x44D PUSH2 0x3CE JUMP JUMPDEST PUSH2 0x461 DUP2 PUSH2 0x45B DUP5 SLOAD PUSH2 0x394 JUMP JUMPDEST DUP5 PUSH2 0x3E4 JUMP JUMPDEST PUSH1 0x20 DUP1 PUSH1 0x1F DUP4 GT PUSH1 0x1 DUP2 EQ PUSH2 0x496 JUMPI PUSH1 0x0 DUP5 ISZERO PUSH2 0x47E JUMPI POP DUP6 DUP4 ADD MLOAD JUMPDEST PUSH1 0x0 NOT PUSH1 0x3 DUP7 SWAP1 SHL SHR NOT AND PUSH1 0x1 DUP6 SWAP1 SHL OR DUP6 SSTORE PUSH2 0x42A JUMP JUMPDEST PUSH1 0x0 DUP6 DUP2 MSTORE PUSH1 0x20 DUP2 KECCAK256 PUSH1 0x1F NOT DUP7 AND SWAP2 JUMPDEST DUP3 DUP2 LT ISZERO PUSH2 0x4C5 JUMPI DUP9 DUP7 ADD MLOAD DUP3 SSTORE SWAP5 DUP5 ADD SWAP5 PUSH1 0x1 SWAP1 SWAP2 ADD SWAP1 DUP5 ADD PUSH2 0x4A6 JUMP JUMPDEST POP DUP6 DUP3 LT ISZERO PUSH2 0x4E3 JUMPI DUP8 DUP6 ADD MLOAD PUSH1 0x0 NOT PUSH1 0x3 DUP9 SWAP1 SHL PUSH1 0xF8 AND SHR NOT AND DUP2 SSTORE JUMPDEST POP POP POP POP POP PUSH1 0x1 SWAP1 DUP2 SHL ADD SWAP1 SSTORE POP JUMP JUMPDEST PUSH1 0x20 DUP2 MSTORE DUP2 PUSH1 0x20 DUP3 ADD MSTORE DUP2 DUP4 PUSH1 0x40 DUP4 ADD CALLDATACOPY PUSH1 0x0 DUP2 DUP4 ADD PUSH1 0x40 SWAP1 DUP2 ADD SWAP2 SWAP1 SWAP2 MSTORE PUSH1 0x1F SWAP1 SWAP3 ADD PUSH1 0x1F NOT AND ADD ADD SWAP2 SWAP1 POP JUMP INVALID LOG2 PUSH5 0x6970667358 0x22 SLT KECCAK256 0x28 PUSH14 0xAB2B02B29AC61BB264288F6DC0E2 0x5E CODESIZE GASLIMIT 0xA5 SWAP4 PUSH3 0x877B9F 0xDF 0xF6 0xE2 0x1E EQ 0xE1 0x49 PUSH5 0x736F6C6343 STOP ADDMOD SGT STOP CALLER "},"methodIdentifiers":{"notarize(bytes32,bytes32,string)":"9755940b","verify(bytes32)":"75e36616"}}}}}