{"contracts/QuizLens.sol":{"QuizLens":{"abi":[{"anonymous":false,"inputs":[{"indexed":false,"internalType":"bytes32","name":"newRoot","type":"bytes32"}],"name":"MerkleRootUpdated","type":"event"},{"anonymous":false,"inputs":[{"indexed":true,"internalType":"bytes32","name":"paperHash","type":"bytes32"},{"indexed":true,"internalType":"address","name":"setter","type":"address"},{"indexed":false,"internalType":"string","name":"title","type":"string"}],"name":"Notarized","type":"event"},{"inputs":[],"name":"getLeafCount","outputs":[{"internalType":"uint256","name":"","type":"uint256"}],"stateMutability":"view","type":"function"},{"inputs":[],"name":"merkleRoot","outputs":[{"internalType":"bytes32","name":"","type":"bytes32"}],"stateMutability":"view","type":"function"},{"inputs":[{"internalType":"bytes32","name":"paperHash","type":"bytes32"},{"internalType":"bytes32","name":"reportHash","type":"bytes32"},{"internalType":"string","name":"title","type":"string"}],"name":"notarize","outputs":[],"stateMutability":"nonpayable","type":"function"},{"inputs":[{"internalType":"uint256","name":"","type":"uint256"}],"name":"notarizedHashes","outputs":[{"internalType":"bytes32","name":"","type":"bytes32"}],"stateMutability":"view","type":"function"},{"inputs":[{"internalType":"bytes32","name":"paperHash","type":"bytes32"}],"name":"verify","outputs":[{"internalType":"bool","name":"valid","type":"bool"},{"internalType":"address","name":"setter","type":"address"},{"internalType":"bytes32","name":"reportHash","type":"bytes32"},{"internalType":"uint256","name":"timestamp","type":"uint256"},{"internalType":"string","name":"title","type":"string"}],"stateMutability":"view","type":"function"},{"inputs":[{"internalType":"bytes32","name":"leaf","type":"bytes32"},{"internalType":"bytes32[]","name":"proof","type":"bytes32[]"},{"internalType":"bytes32","name":"side","type":"bytes32"}],"name":"verifyMerkleProof","outputs":[{"internalType":"bool","name":"","type":"bool"}],"stateMutability":"view","type":"function"}],"evm":{"bytecode":{"linkReferences":{},"object":"608060405234801561001057600080fd5b50610a7d806100206000396000f3fe608060405234801561001057600080fd5b50600436106100625760003560e01c80632eb4a7ab1461006757806335f0dced14610083578063433953d7146100a657806375e36616146100b95780639755940b146100dd578063d3ea6125146100f2575b600080fd5b61007060015481565b6040519081526020015b60405180910390f35b61009661009136600461068f565b6100fa565b604051901515815260200161007a565b6100706100b4366004610714565b6101c9565b6100cc6100c7366004610714565b6101ea565b60405161007a95949392919061072d565b6100f06100eb3660046107a2565b6102cb565b005b600254610070565b600084815b848110156101bb57831561015c5785858281811061011f5761011f610822565b9050602002013582604051602001610141929190918252602082015260400190565b604051602081830303815290604052805190602001206101a7565b8186868381811061016f5761016f610822565b90506020020135604051602001610190929190918252602082015260400190565b604051602081830303815290604052805190602001205b9150806101b38161084e565b9150506100ff565b506001541495945050505050565b600281815481106101d957600080fd5b600091825260209091200154905081565b6000818152602081905260408120805460018201546002830154600384018054869586958695606095929460ff8316946101009093046001600160a01b0316939192819061023790610867565b80601f016020809104026020016040519081016040528092919081815260200182805461026390610867565b80156102b05780601f10610285576101008083540402835291602001916102b0565b820191906000526020600020905b81548152906001019060200180831161029357829003601f168201915b50505050509050955095509550955095505091939590929450565b6040518060a00160405280600115158152602001336001600160a01b0316815260200184815260200142815260200183838080601f0160208091040260200160405190810160405280939291908181526020018383808284376000920182905250939094525050868152602081815260409182902084518154928601516001600160a81b0319909316901515610100600160a81b031916176101006001600160a01b039093169290920291909117815590830151600182015560608301516002820155608083015190915060038201906103a59082610906565b5050600280546001810182556000919091527f405787fa12a823e0f2b7631cc41b3ba8828b3321ca811111fa75cd3aa3bb5ace01859055506103e5610467565b600155604051339085907f70a0d3c91852c418811b02c48812447497c35c5dd710185115d35b3a70063cc89061041e90869086906109c6565b60405180910390a37f90004c04698bc3322499a575ed3752dd4abf33e0a7294c06a787a0fe01bea94160015460405161045991815260200190565b60405180910390a150505050565b60025460009080820361047c57506000919050565b60008167ffffffffffffffff811115610497576104976108a1565b6040519080825280602002602001820160405280156104c0578160200160208202803683370190505b50905060005b8281101561051b57600281815481106104e1576104e1610822565b90600052602060002001548282815181106104fe576104fe610822565b6020908102919091010152806105138161084e565b9150506104c6565b505b60018151111561066d578051600060026105388360016109f5565b6105429190610a0e565b905060008167ffffffffffffffff81111561055f5761055f6108a1565b604051908082528060200260200182016040528015610588578160200160208202803683370190505b50905060005b828110156106625760006105a3826002610a30565b90506000856105b38360016109f5565b106105be57816105c9565b6105c98260016109f5565b90508682815181106105dd576105dd610822565b60200260200101518782815181106105f7576105f7610822565b6020026020010151604051602001610619929190918252602082015260400190565b6040516020818303038152906040528051906020012084848151811061064157610641610822565b6020026020010181815250505050808061065a9061084e565b91505061058e565b50925061051d915050565b8060008151811061068057610680610822565b60200260200101519250505090565b600080600080606085870312156106a557600080fd5b84359350602085013567ffffffffffffffff808211156106c457600080fd5b818701915087601f8301126106d857600080fd5b8135818111156106e757600080fd5b8860208260051b85010111156106fc57600080fd5b95986020929092019750949560400135945092505050565b60006020828403121561072657600080fd5b5035919050565b85151581526000602060018060a01b0387168184015285604084015284606084015260a0608084015283518060a085015260005b8181101561077d5785810183015185820160c001528201610761565b50600060c0828601015260c0601f19601f830116850101925050509695505050505050565b600080600080606085870312156107b857600080fd5b8435935060208501359250604085013567ffffffffffffffff808211156107de57600080fd5b818701915087601f8301126107f257600080fd5b81358181111561080157600080fd5b88602082850101111561081357600080fd5b95989497505060200194505050565b634e487b7160e01b600052603260045260246000fd5b634e487b7160e01b600052601160045260246000fd5b60006001820161086057610860610838565b5060010190565b600181811c9082168061087b57607f821691505b60208210810361089b57634e487b7160e01b600052602260045260246000fd5b50919050565b634e487b7160e01b600052604160045260246000fd5b601f82111561090157600081815260208120601f850160051c810160208610156108de5750805b601f850160051c820191505b818110156108fd578281556001016108ea565b5050505b505050565b815167ffffffffffffffff811115610920576109206108a1565b6109348161092e8454610867565b846108b7565b602080601f83116001811461096957600084156109515750858301515b600019600386901b1c1916600185901b1785556108fd565b600085815260208120601f198616915b8281101561099857888601518255948401946001909101908401610979565b50858210156109b65787850151600019600388901b60f8161c191681555b5050505050600190811b01905550565b60208152816020820152818360408301376000818301604090810191909152601f909201601f19160101919050565b80820180821115610a0857610a08610838565b92915050565b600082610a2b57634e487b7160e01b600052601260045260246000fd5b500490565b8082028115828204841417610a0857610a0861083856fea2646970667358221220d0e55e2fee463a5f83cea6e0cc94c152f6ba815c46cceb52dc50e0e858820be764736f6c63430008130033","opcodes":"PUSH1 0x80 PUSH1 0x40 MSTORE CALLVALUE DUP1 ISZERO PUSH2 0x10 JUMPI PUSH1 0x0 DUP1 REVERT JUMPDEST POP PUSH2 0xA7D DUP1 PUSH2 0x20 PUSH1 0x0 CODECOPY PUSH1 0x0 RETURN INVALID PUSH1 0x80 PUSH1 0x40 MSTORE CALLVALUE DUP1 ISZERO PUSH2 0x10 JUMPI PUSH1 0x0 DUP1 REVERT JUMPDEST POP PUSH1 0x4 CALLDATASIZE LT PUSH2 0x62 JUMPI PUSH1 0x0 CALLDATALOAD PUSH1 0xE0 SHR DUP1 PUSH4 0x2EB4A7AB EQ PUSH2 0x67 JUMPI DUP1 PUSH4 0x35F0DCED EQ PUSH2 0x83 JUMPI DUP1 PUSH4 0x433953D7 EQ PUSH2 0xA6 JUMPI DUP1 PUSH4 0x75E36616 EQ PUSH2 0xB9 JUMPI DUP1 PUSH4 0x9755940B EQ PUSH2 0xDD JUMPI DUP1 PUSH4 0xD3EA6125 EQ PUSH2 0xF2 JUMPI JUMPDEST PUSH1 0x0 DUP1 REVERT JUMPDEST PUSH2 0x70 PUSH1 0x1 SLOAD DUP2 JUMP JUMPDEST PUSH1 0x40 MLOAD SWAP1 DUP2 MSTORE PUSH1 0x20 ADD JUMPDEST PUSH1 0x40 MLOAD DUP1 SWAP2 SUB SWAP1 RETURN JUMPDEST PUSH2 0x96 PUSH2 0x91 CALLDATASIZE PUSH1 0x4 PUSH2 0x68F JUMP JUMPDEST PUSH2 0xFA JUMP JUMPDEST PUSH1 0x40 MLOAD SWAP1 ISZERO ISZERO DUP2 MSTORE PUSH1 0x20 ADD PUSH2 0x7A JUMP JUMPDEST PUSH2 0x70 PUSH2 0xB4 CALLDATASIZE PUSH1 0x4 PUSH2 0x714 JUMP JUMPDEST PUSH2 0x1C9 JUMP JUMPDEST PUSH2 0xCC PUSH2 0xC7 CALLDATASIZE PUSH1 0x4 PUSH2 0x714 JUMP JUMPDEST PUSH2 0x1EA JUMP JUMPDEST PUSH1 0x40 MLOAD PUSH2 0x7A SWAP6 SWAP5 SWAP4 SWAP3 SWAP2 SWAP1 PUSH2 0x72D JUMP JUMPDEST PUSH2 0xF0 PUSH2 0xEB CALLDATASIZE PUSH1 0x4 PUSH2 0x7A2 JUMP JUMPDEST PUSH2 0x2CB JUMP JUMPDEST STOP JUMPDEST PUSH1 0x2 SLOAD PUSH2 0x70 JUMP JUMPDEST PUSH1 0x0 DUP5 DUP2 JUMPDEST DUP5 DUP2 LT ISZERO PUSH2 0x1BB JUMPI DUP4 ISZERO PUSH2 0x15C JUMPI DUP6 DUP6 DUP3 DUP2 DUP2 LT PUSH2 0x11F JUMPI PUSH2 0x11F PUSH2 0x822 JUMP JUMPDEST SWAP1 POP PUSH1 0x20 MUL ADD CALLDATALOAD DUP3 PUSH1 0x40 MLOAD PUSH1 0x20 ADD PUSH2 0x141 SWAP3 SWAP2 SWAP1 SWAP2 DUP3 MSTORE PUSH1 0x20 DUP3 ADD MSTORE PUSH1 0x40 ADD SWAP1 JUMP JUMPDEST PUSH1 0x40 MLOAD PUSH1 0x20 DUP2 DUP4 SUB SUB DUP2 MSTORE SWAP1 PUSH1 0x40 MSTORE DUP1 MLOAD SWAP1 PUSH1 0x20 ADD KECCAK256 PUSH2 0x1A7 JUMP JUMPDEST DUP2 DUP7 DUP7 DUP4 DUP2 DUP2 LT PUSH2 0x16F JUMPI PUSH2 0x16F PUSH2 0x822 JUMP JUMPDEST SWAP1 POP PUSH1 0x20 MUL ADD CALLDATALOAD PUSH1 0x40 MLOAD PUSH1 0x20 ADD PUSH2 0x190 SWAP3 SWAP2 SWAP1 SWAP2 DUP3 MSTORE PUSH1 0x20 DUP3 ADD MSTORE PUSH1 0x40 ADD SWAP1 JUMP JUMPDEST PUSH1 0x40 MLOAD PUSH1 0x20 DUP2 DUP4 SUB SUB DUP2 MSTORE SWAP1 PUSH1 0x40 MSTORE DUP1 MLOAD SWAP1 PUSH1 0x20 ADD KECCAK256 JUMPDEST SWAP2 POP DUP1 PUSH2 0x1B3 DUP2 PUSH2 0x84E JUMP JUMPDEST SWAP2 POP POP PUSH2 0xFF JUMP JUMPDEST POP PUSH1 0x1 SLOAD EQ SWAP6 SWAP5 POP POP POP POP POP JUMP JUMPDEST PUSH1 0x2 DUP2 DUP2 SLOAD DUP2 LT PUSH2 0x1D9 JUMPI PUSH1 0x0 DUP1 REVERT JUMPDEST PUSH1 0x0 SWAP2 DUP3 MSTORE PUSH1 0x20 SWAP1 SWAP2 KECCAK256 ADD SLOAD SWAP1 POP DUP2 JUMP JUMPDEST PUSH1 0x0 DUP2 DUP2 MSTORE PUSH1 0x20 DUP2 SWAP1 MSTORE PUSH1 0x40 DUP2 KECCAK256 DUP1 SLOAD PUSH1 0x1 DUP3 ADD SLOAD PUSH1 0x2 DUP4 ADD SLOAD PUSH1 0x3 DUP5 ADD DUP1 SLOAD DUP7 SWAP6 DUP7 SWAP6 DUP7 SWAP6 PUSH1 0x60 SWAP6 SWAP3 SWAP5 PUSH1 0xFF DUP4 AND SWAP5 PUSH2 0x100 SWAP1 SWAP4 DIV PUSH1 0x1 PUSH1 0x1 PUSH1 0xA0 SHL SUB AND SWAP4 SWAP2 SWAP3 DUP2 SWAP1 PUSH2 0x237 SWAP1 PUSH2 0x867 JUMP JUMPDEST DUP1 PUSH1 0x1F ADD PUSH1 0x20 DUP1 SWAP2 DIV MUL PUSH1 0x20 ADD PUSH1 0x40 MLOAD SWAP1 DUP2 ADD PUSH1 0x40 MSTORE DUP1 SWAP3 SWAP2 SWAP1 DUP2 DUP2 MSTORE PUSH1 0x20 ADD DUP3 DUP1 SLOAD PUSH2 0x263 SWAP1 PUSH2 0x867 JUMP JUMPDEST DUP1 ISZERO PUSH2 0x2B0 JUMPI DUP1 PUSH1 0x1F LT PUSH2 0x285 JUMPI PUSH2 0x100 DUP1 DUP4 SLOAD DIV MUL DUP4 MSTORE SWAP2 PUSH1 0x20 ADD SWAP2 PUSH2 0x2B0 JUMP JUMPDEST DUP3 ADD SWAP2 SWAP1 PUSH1 0x0 MSTORE PUSH1 0x20 PUSH1 0x0 KECCAK256 SWAP1 JUMPDEST DUP2 SLOAD DUP2 MSTORE SWAP1 PUSH1 0x1 ADD SWAP1 PUSH1 0x20 ADD DUP1 DUP4 GT PUSH2 0x293 JUMPI DUP3 SWAP1 SUB PUSH1 0x1F AND DUP3 ADD SWAP2 JUMPDEST POP POP POP POP POP SWAP1 POP SWAP6 POP SWAP6 POP SWAP6 POP SWAP6 POP SWAP6 POP POP SWAP2 SWAP4 SWAP6 SWAP1 SWAP3 SWAP5 POP JUMP JUMPDEST PUSH1 0x40 MLOAD DUP1 PUSH1 0xA0 ADD PUSH1 0x40 MSTORE DUP1 PUSH1 0x1 ISZERO ISZERO DUP2 MSTORE PUSH1 0x20 ADD CALLER PUSH1 0x1 PUSH1 0x1 PUSH1 0xA0 SHL SUB AND DUP2 MSTORE PUSH1 0x20 ADD DUP5 DUP2 MSTORE PUSH1 0x20 ADD TIMESTAMP DUP2 MSTORE PUSH1 0x20 ADD DUP4 DUP4 DUP1 DUP1 PUSH1 0x1F ADD PUSH1 0x20 DUP1 SWAP2 DIV MUL PUSH1 0x20 ADD PUSH1 0x40 MLOAD SWAP1 DUP2 ADD PUSH1 0x40 MSTORE DUP1 SWAP4 SWAP3 SWAP2 SWAP1 DUP2 DUP2 MSTORE PUSH1 0x20 ADD DUP4 DUP4 DUP1 DUP3 DUP5 CALLDATACOPY PUSH1 0x0 SWAP3 ADD DUP3 SWAP1 MSTORE POP SWAP4 SWAP1 SWAP5 MSTORE POP POP DUP7 DUP2 MSTORE PUSH1 0x20 DUP2 DUP2 MSTORE PUSH1 0x40 SWAP2 DUP3 SWAP1 KECCAK256 DUP5 MLOAD DUP2 SLOAD SWAP3 DUP7 ADD MLOAD PUSH1 0x1 PUSH1 0x1 PUSH1 0xA8 SHL SUB NOT SWAP1 SWAP4 AND SWAP1 ISZERO ISZERO PUSH2 0x100 PUSH1 0x1 PUSH1 0xA8 SHL SUB NOT AND OR PUSH2 0x100 PUSH1 0x1 PUSH1 0x1 PUSH1 0xA0 SHL SUB SWAP1 SWAP4 AND SWAP3 SWAP1 SWAP3 MUL SWAP2 SWAP1 SWAP2 OR DUP2 SSTORE SWAP1 DUP4 ADD MLOAD PUSH1 0x1 DUP3 ADD SSTORE PUSH1 0x60 DUP4 ADD MLOAD PUSH1 0x2 DUP3 ADD SSTORE PUSH1 0x80 DUP4 ADD MLOAD SWAP1 SWAP2 POP PUSH1 0x3 DUP3 ADD SWAP1 PUSH2 0x3A5 SWAP1 DUP3 PUSH2 0x906 JUMP JUMPDEST POP POP PUSH1 0x2 DUP1 SLOAD PUSH1 0x1 DUP2 ADD DUP3 SSTORE PUSH1 0x0 SWAP2 SWAP1 SWAP2 MSTORE PUSH32 0x405787FA12A823E0F2B7631CC41B3BA8828B3321CA811111FA75CD3AA3BB5ACE ADD DUP6 SWAP1 SSTORE POP PUSH2 0x3E5 PUSH2 0x467 JUMP JUMPDEST PUSH1 0x1 SSTORE PUSH1 0x40 MLOAD CALLER SWAP1 DUP6 SWAP1 PUSH32 0x70A0D3C91852C418811B02C48812447497C35C5DD710185115D35B3A70063CC8 SWAP1 PUSH2 0x41E SWAP1 DUP7 SWAP1 DUP7 SWAP1 PUSH2 0x9C6 JUMP JUMPDEST PUSH1 0x40 MLOAD DUP1 SWAP2 SUB SWAP1 LOG3 PUSH32 0x90004C04698BC3322499A575ED3752DD4ABF33E0A7294C06A787A0FE01BEA941 PUSH1 0x1 SLOAD PUSH1 0x40 MLOAD PUSH2 0x459 SWAP2 DUP2 MSTORE PUSH1 0x20 ADD SWAP1 JUMP JUMPDEST PUSH1 0x40 MLOAD DUP1 SWAP2 SUB SWAP1 LOG1 POP POP POP POP JUMP JUMPDEST PUSH1 0x2 SLOAD PUSH1 0x0 SWAP1 DUP1 DUP3 SUB PUSH2 0x47C JUMPI POP PUSH1 0x0 SWAP2 SWAP1 POP JUMP JUMPDEST PUSH1 0x0 DUP2 PUSH8 0xFFFFFFFFFFFFFFFF DUP2 GT ISZERO PUSH2 0x497 JUMPI PUSH2 0x497 PUSH2 0x8A1 JUMP JUMPDEST PUSH1 0x40 MLOAD SWAP1 DUP1 DUP3 MSTORE DUP1 PUSH1 0x20 MUL PUSH1 0x20 ADD DUP3 ADD PUSH1 0x40 MSTORE DUP1 ISZERO PUSH2 0x4C0 JUMPI DUP2 PUSH1 0x20 ADD PUSH1 0x20 DUP3 MUL DUP1 CALLDATASIZE DUP4 CALLDATACOPY ADD SWAP1 POP JUMPDEST POP SWAP1 POP PUSH1 0x0 JUMPDEST DUP3 DUP2 LT ISZERO PUSH2 0x51B JUMPI PUSH1 0x2 DUP2 DUP2 SLOAD DUP2 LT PUSH2 0x4E1 JUMPI PUSH2 0x4E1 PUSH2 0x822 JUMP JUMPDEST SWAP1 PUSH1 0x0 MSTORE PUSH1 0x20 PUSH1 0x0 KECCAK256 ADD SLOAD DUP3 DUP3 DUP2 MLOAD DUP2 LT PUSH2 0x4FE JUMPI PUSH2 0x4FE PUSH2 0x822 JUMP JUMPDEST PUSH1 0x20 SWAP1 DUP2 MUL SWAP2 SWAP1 SWAP2 ADD ADD MSTORE DUP1 PUSH2 0x513 DUP2 PUSH2 0x84E JUMP JUMPDEST SWAP2 POP POP PUSH2 0x4C6 JUMP JUMPDEST POP JUMPDEST PUSH1 0x1 DUP2 MLOAD GT ISZERO PUSH2 0x66D JUMPI DUP1 MLOAD PUSH1 0x0 PUSH1 0x2 PUSH2 0x538 DUP4 PUSH1 0x1 PUSH2 0x9F5 JUMP JUMPDEST PUSH2 0x542 SWAP2 SWAP1 PUSH2 0xA0E JUMP JUMPDEST SWAP1 POP PUSH1 0x0 DUP2 PUSH8 0xFFFFFFFFFFFFFFFF DUP2 GT ISZERO PUSH2 0x55F JUMPI PUSH2 0x55F PUSH2 0x8A1 JUMP JUMPDEST PUSH1 0x40 MLOAD SWAP1 DUP1 DUP3 MSTORE DUP1 PUSH1 0x20 MUL PUSH1 0x20 ADD DUP3 ADD PUSH1 0x40 MSTORE DUP1 ISZERO PUSH2 0x588 JUMPI DUP2 PUSH1 0x20 ADD PUSH1 0x20 DUP3 MUL DUP1 CALLDATASIZE DUP4 CALLDATACOPY ADD SWAP1 POP JUMPDEST POP SWAP1 POP PUSH1 0x0 JUMPDEST DUP3 DUP2 LT ISZERO PUSH2 0x662 JUMPI PUSH1 0x0 PUSH2 0x5A3 DUP3 PUSH1 0x2 PUSH2 0xA30 JUMP JUMPDEST SWAP1 POP PUSH1 0x0 DUP6 PUSH2 0x5B3 DUP4 PUSH1 0x1 PUSH2 0x9F5 JUMP JUMPDEST LT PUSH2 0x5BE JUMPI DUP2 PUSH2 0x5C9 JUMP JUMPDEST PUSH2 0x5C9 DUP3 PUSH1 0x1 PUSH2 0x9F5 JUMP JUMPDEST SWAP1 POP DUP7 DUP3 DUP2 MLOAD DUP2 LT PUSH2 0x5DD JUMPI PUSH2 0x5DD PUSH2 0x822 JUMP JUMPDEST PUSH1 0x20 MUL PUSH1 0x20 ADD ADD MLOAD DUP8 DUP3 DUP2 MLOAD DUP2 LT PUSH2 0x5F7 JUMPI PUSH2 0x5F7 PUSH2 0x822 JUMP JUMPDEST PUSH1 0x20 MUL PUSH1 0x20 ADD ADD MLOAD PUSH1 0x40 MLOAD PUSH1 0x20 ADD PUSH2 0x619 SWAP3 SWAP2 SWAP1 SWAP2 DUP3 MSTORE PUSH1 0x20 DUP3 ADD MSTORE PUSH1 0x40 ADD SWAP1 JUMP JUMPDEST PUSH1 0x40 MLOAD PUSH1 0x20 DUP2 DUP4 SUB SUB DUP2 MSTORE SWAP1 PUSH1 0x40 MSTORE DUP1 MLOAD SWAP1 PUSH1 0x20 ADD KECCAK256 DUP5 DUP5 DUP2 MLOAD DUP2 LT PUSH2 0x641 JUMPI PUSH2 0x641 PUSH2 0x822 JUMP JUMPDEST PUSH1 0x20 MUL PUSH1 0x20 ADD ADD DUP2 DUP2 MSTORE POP POP POP POP DUP1 DUP1 PUSH2 0x65A SWAP1 PUSH2 0x84E JUMP JUMPDEST SWAP2 POP POP PUSH2 0x58E JUMP JUMPDEST POP SWAP3 POP PUSH2 0x51D SWAP2 POP POP JUMP JUMPDEST DUP1 PUSH1 0x0 DUP2 MLOAD DUP2 LT PUSH2 0x680 JUMPI PUSH2 0x680 PUSH2 0x822 JUMP JUMPDEST PUSH1 0x20 MUL PUSH1 0x20 ADD ADD MLOAD SWAP3 POP POP POP SWAP1 JUMP JUMPDEST PUSH1 0x0 DUP1 PUSH1 0x0 DUP1 PUSH1 0x60 DUP6 DUP8 SUB SLT ISZERO PUSH2 0x6A5 JUMPI PUSH1 0x0 DUP1 REVERT JUMPDEST DUP5 CALLDATALOAD SWAP4 POP PUSH1 0x20 DUP6 ADD CALLDATALOAD PUSH8 0xFFFFFFFFFFFFFFFF DUP1 DUP3 GT ISZERO PUSH2 0x6C4 JUMPI PUSH1 0x0 DUP1 REVERT JUMPDEST DUP2 DUP8 ADD SWAP2 POP DUP8 PUSH1 0x1F DUP4 ADD SLT PUSH2 0x6D8 JUMPI PUSH1 0x0 DUP1 REVERT JUMPDEST DUP2 CALLDATALOAD DUP2 DUP2 GT ISZERO PUSH2 0x6E7 JUMPI PUSH1 0x0 DUP1 REVERT JUMPDEST DUP9 PUSH1 0x20 DUP3 PUSH1 0x5 SHL DUP6 ADD ADD GT ISZERO PUSH2 0x6FC JUMPI PUSH1 0x0 DUP1 REVERT JUMPDEST SWAP6 SWAP9 PUSH1 0x20 SWAP3 SWAP1 SWAP3 ADD SWAP8 POP SWAP5 SWAP6 PUSH1 0x40 ADD CALLDATALOAD SWAP5 POP SWAP3 POP POP POP JUMP JUMPDEST PUSH1 0x0 PUSH1 0x20 DUP3 DUP5 SUB SLT ISZERO PUSH2 0x726 JUMPI PUSH1 0x0 DUP1 REVERT JUMPDEST POP CALLDATALOAD SWAP2 SWAP1 POP JUMP JUMPDEST DUP6 ISZERO ISZERO DUP2 MSTORE PUSH1 0x0 PUSH1 0x20 PUSH1 0x1 DUP1 PUSH1 0xA0 SHL SUB DUP8 AND DUP2 DUP5 ADD MSTORE DUP6 PUSH1 0x40 DUP5 ADD MSTORE DUP5 PUSH1 0x60 DUP5 ADD MSTORE PUSH1 0xA0 PUSH1 0x80 DUP5 ADD MSTORE DUP4 MLOAD DUP1 PUSH1 0xA0 DUP6 ADD MSTORE PUSH1 0x0 JUMPDEST DUP2 DUP2 LT ISZERO PUSH2 0x77D JUMPI DUP6 DUP2 ADD DUP4 ADD MLOAD DUP6 DUP3 ADD PUSH1 0xC0 ADD MSTORE DUP3 ADD PUSH2 0x761 JUMP JUMPDEST POP PUSH1 0x0 PUSH1 0xC0 DUP3 DUP7 ADD ADD MSTORE PUSH1 0xC0 PUSH1 0x1F NOT PUSH1 0x1F DUP4 ADD AND DUP6 ADD ADD SWAP3 POP POP POP SWAP7 SWAP6 POP POP POP POP POP POP JUMP JUMPDEST PUSH1 0x0 DUP1 PUSH1 0x0 DUP1 PUSH1 0x60 DUP6 DUP8 SUB SLT ISZERO PUSH2 0x7B8 JUMPI PUSH1 0x0 DUP1 REVERT JUMPDEST DUP5 CALLDATALOAD SWAP4 POP PUSH1 0x20 DUP6 ADD CALLDATALOAD SWAP3 POP PUSH1 0x40 DUP6 ADD CALLDATALOAD PUSH8 0xFFFFFFFFFFFFFFFF DUP1 DUP3 GT ISZERO PUSH2 0x7DE JUMPI PUSH1 0x0 DUP1 REVERT JUMPDEST DUP2 DUP8 ADD SWAP2 POP DUP8 PUSH1 0x1F DUP4 ADD SLT PUSH2 0x7F2 JUMPI PUSH1 0x0 DUP1 REVERT JUMPDEST DUP2 CALLDATALOAD DUP2 DUP2 GT ISZERO PUSH2 0x801 JUMPI PUSH1 0x0 DUP1 REVERT JUMPDEST DUP9 PUSH1 0x20 DUP3 DUP6 ADD ADD GT ISZERO PUSH2 0x813 JUMPI PUSH1 0x0 DUP1 REVERT JUMPDEST SWAP6 SWAP9 SWAP5 SWAP8 POP POP PUSH1 0x20 ADD SWAP5 POP POP POP JUMP JUMPDEST PUSH4 0x4E487B71 PUSH1 0xE0 SHL PUSH1 0x0 MSTORE PUSH1 0x32 PUSH1 0x4 MSTORE PUSH1 0x24 PUSH1 0x0 REVERT JUMPDEST PUSH4 0x4E487B71 PUSH1 0xE0 SHL PUSH1 0x0 MSTORE PUSH1 0x11 PUSH1 0x4 MSTORE PUSH1 0x24 PUSH1 0x0 REVERT JUMPDEST PUSH1 0x0 PUSH1 0x1 DUP3 ADD PUSH2 0x860 JUMPI PUSH2 0x860 PUSH2 0x838 JUMP JUMPDEST POP PUSH1 0x1 ADD SWAP1 JUMP JUMPDEST PUSH1 0x1 DUP2 DUP2 SHR SWAP1 DUP3 AND DUP1 PUSH2 0x87B JUMPI PUSH1 0x7F DUP3 AND SWAP2 POP JUMPDEST PUSH1 0x20 DUP3 LT DUP2 SUB PUSH2 0x89B JUMPI PUSH4 0x4E487B71 PUSH1 0xE0 SHL PUSH1 0x0 MSTORE PUSH1 0x22 PUSH1 0x4 MSTORE PUSH1 0x24 PUSH1 0x0 REVERT JUMPDEST POP SWAP2 SWAP1 POP JUMP JUMPDEST PUSH4 0x4E487B71 PUSH1 0xE0 SHL PUSH1 0x0 MSTORE PUSH1 0x41 PUSH1 0x4 MSTORE PUSH1 0x24 PUSH1 0x0 REVERT JUMPDEST PUSH1 0x1F DUP3 GT ISZERO PUSH2 0x901 JUMPI PUSH1 0x0 DUP2 DUP2 MSTORE PUSH1 0x20 DUP2 KECCAK256 PUSH1 0x1F DUP6 ADD PUSH1 0x5 SHR DUP2 ADD PUSH1 0x20 DUP7 LT ISZERO PUSH2 0x8DE JUMPI POP DUP1 JUMPDEST PUSH1 0x1F DUP6 ADD PUSH1 0x5 SHR DUP3 ADD SWAP2 POP JUMPDEST DUP2 DUP2 LT ISZERO PUSH2 0x8FD JUMPI DUP3 DUP2 SSTORE PUSH1 0x1 ADD PUSH2 0x8EA JUMP JUMPDEST POP POP POP JUMPDEST POP POP POP JUMP JUMPDEST DUP2 MLOAD PUSH8 0xFFFFFFFFFFFFFFFF DUP2 GT ISZERO PUSH2 0x920 JUMPI PUSH2 0x920 PUSH2 0x8A1 JUMP JUMPDEST PUSH2 0x934 DUP2 PUSH2 0x92E DUP5 SLOAD PUSH2 0x867 JUMP JUMPDEST DUP5 PUSH2 0x8B7 JUMP JUMPDEST PUSH1 0x20 DUP1 PUSH1 0x1F DUP4 GT PUSH1 0x1 DUP2 EQ PUSH2 0x969 JUMPI PUSH1 0x0 DUP5 ISZERO PUSH2 0x951 JUMPI POP DUP6 DUP4 ADD MLOAD JUMPDEST PUSH1 0x0 NOT PUSH1 0x3 DUP7 SWAP1 SHL SHR NOT AND PUSH1 0x1 DUP6 SWAP1 SHL OR DUP6 SSTORE PUSH2 0x8FD JUMP JUMPDEST PUSH1 0x0 DUP6 DUP2 MSTORE PUSH1 0x20 DUP2 KECCAK256 PUSH1 0x1F NOT DUP7 AND SWAP2 JUMPDEST DUP3 DUP2 LT ISZERO PUSH2 0x998 JUMPI DUP9 DUP7 ADD MLOAD DUP3 SSTORE SWAP5 DUP5 ADD SWAP5 PUSH1 0x1 SWAP1 SWAP2 ADD SWAP1 DUP5 ADD PUSH2 0x979 JUMP JUMPDEST POP DUP6 DUP3 LT ISZERO PUSH2 0x9B6 JUMPI DUP8 DUP6 ADD MLOAD PUSH1 0x0 NOT PUSH1 0x3 DUP9 SWAP1 SHL PUSH1 0xF8 AND SHR NOT AND DUP2 SSTORE JUMPDEST POP POP POP POP POP PUSH1 0x1 SWAP1 DUP2 SHL ADD SWAP1 SSTORE POP JUMP JUMPDEST PUSH1 0x20 DUP2 MSTORE DUP2 PUSH1 0x20 DUP3 ADD MSTORE DUP2 DUP4 PUSH1 0x40 DUP4 ADD CALLDATACOPY PUSH1 0x0 DUP2 DUP4 ADD PUSH1 0x40 SWAP1 DUP2 ADD SWAP2 SWAP1 SWAP2 MSTORE PUSH1 0x1F SWAP1 SWAP3 ADD PUSH1 0x1F NOT AND ADD ADD SWAP2 SWAP1 POP JUMP JUMPDEST DUP1 DUP3 ADD DUP1 DUP3 GT ISZERO PUSH2 0xA08 JUMPI PUSH2 0xA08 PUSH2 0x838 JUMP JUMPDEST SWAP3 SWAP2 POP POP JUMP JUMPDEST PUSH1 0x0 DUP3 PUSH2 0xA2B JUMPI PUSH4 0x4E487B71 PUSH1 0xE0 SHL PUSH1 0x0 MSTORE PUSH1 0x12 PUSH1 0x4 MSTORE PUSH1 0x24 PUSH1 0x0 REVERT JUMPDEST POP DIV SWAP1 JUMP JUMPDEST DUP1 DUP3 MUL DUP2 ISZERO DUP3 DUP3 DIV DUP5 EQ OR PUSH2 0xA08 JUMPI PUSH2 0xA08 PUSH2 0x838 JUMP INVALID LOG2 PUSH5 0x6970667358 0x22 SLT KECCAK256 0xD0 0xE5 0x5E 0x2F 0xEE CHAINID GASPRICE 0x5F DUP4 0xCE 0xA6 0xE0 0xCC SWAP5 0xC1 MSTORE 0xF6 0xBA DUP2 0x5C CHAINID 0xCC 0xEB MSTORE 0xDC POP 0xE0 0xE8 PC DUP3 SIGNEXTEND 0xE7 PUSH5 0x736F6C6343 STOP ADDMOD SGT STOP CALLER "},"methodIdentifiers":{"getLeafCount()":"d3ea6125","merkleRoot()":"2eb4a7ab","notarize(bytes32,bytes32,string)":"9755940b","notarizedHashes(uint256)":"433953d7","verify(bytes32)":"75e36616","verifyMerkleProof(bytes32,bytes32[],bytes32)":"35f0dced"}}}}}