{
  "_format": "hh-sol-artifact-1",
  "contractName": "QuizLens",
  "sourceName": "contracts/QuizLens.sol",
  "abi": [
    {
      "anonymous": false,
      "inputs": [
        {
          "indexed": false,
          "internalType": "bytes32",
          "name": "newRoot",
          "type": "bytes32"
        }
      ],
      "name": "MerkleRootUpdated",
      "type": "event"
    },
    {
      "anonymous": false,
      "inputs": [
        {
          "indexed": true,
          "internalType": "bytes32",
          "name": "paperHash",
          "type": "bytes32"
        },
        {
          "indexed": true,
          "internalType": "address",
          "name": "setter",
          "type": "address"
        },
        {
          "indexed": false,
          "internalType": "string",
          "name": "title",
          "type": "string"
        }
      ],
      "name": "Notarized",
      "type": "event"
    },
    {
      "inputs": [],
      "name": "getLeafCount",
      "outputs": [
        {
          "internalType": "uint256",
          "name": "",
          "type": "uint256"
        }
      ],
      "stateMutability": "view",
      "type": "function"
    },
    {
      "inputs": [],
      "name": "merkleRoot",
      "outputs": [
        {
          "internalType": "bytes32",
          "name": "",
          "type": "bytes32"
        }
      ],
      "stateMutability": "view",
      "type": "function"
    },
    {
      "inputs": [
        {
          "internalType": "bytes32",
          "name": "paperHash",
          "type": "bytes32"
        },
        {
          "internalType": "bytes32",
          "name": "reportHash",
          "type": "bytes32"
        },
        {
          "internalType": "string",
          "name": "title",
          "type": "string"
        }
      ],
      "name": "notarize",
      "outputs": [],
      "stateMutability": "nonpayable",
      "type": "function"
    },
    {
      "inputs": [
        {
          "internalType": "uint256",
          "name": "",
          "type": "uint256"
        }
      ],
      "name": "notarizedHashes",
      "outputs": [
        {
          "internalType": "bytes32",
          "name": "",
          "type": "bytes32"
        }
      ],
      "stateMutability": "view",
      "type": "function"
    },
    {
      "inputs": [
        {
          "internalType": "bytes32",
          "name": "paperHash",
          "type": "bytes32"
        }
      ],
      "name": "verify",
      "outputs": [
        {
          "internalType": "bool",
          "name": "valid",
          "type": "bool"
        },
        {
          "internalType": "address",
          "name": "setter",
          "type": "address"
        },
        {
          "internalType": "bytes32",
          "name": "reportHash",
          "type": "bytes32"
        },
        {
          "internalType": "uint256",
          "name": "timestamp",
          "type": "uint256"
        },
        {
          "internalType": "string",
          "name": "title",
          "type": "string"
        }
      ],
      "stateMutability": "view",
      "type": "function"
    },
    {
      "inputs": [
        {
          "internalType": "bytes32",
          "name": "leaf",
          "type": "bytes32"
        },
        {
          "internalType": "bytes32[]",
          "name": "proof",
          "type": "bytes32[]"
        },
        {
          "internalType": "bytes32",
          "name": "side",
          "type": "bytes32"
        }
      ],
      "name": "verifyMerkleProof",
      "outputs": [
        {
          "internalType": "bool",
          "name": "",
          "type": "bool"
        }
      ],
      "stateMutability": "view",
      "type": "function"
    }
  ],
  "bytecode": "0x608060405234801561001057600080fd5b50610a7d806100206000396000f3fe608060405234801561001057600080fd5b50600436106100625760003560e01c80632eb4a7ab1461006757806335f0dced14610083578063433953d7146100a657806375e36616146100b95780639755940b146100dd578063d3ea6125146100f2575b600080fd5b61007060015481565b6040519081526020015b60405180910390f35b61009661009136600461068f565b6100fa565b604051901515815260200161007a565b6100706100b4366004610714565b6101c9565b6100cc6100c7366004610714565b6101ea565b60405161007a95949392919061072d565b6100f06100eb3660046107a2565b6102cb565b005b600254610070565b600084815b848110156101bb57831561015c5785858281811061011f5761011f610822565b9050602002013582604051602001610141929190918252602082015260400190565b604051602081830303815290604052805190602001206101a7565b8186868381811061016f5761016f610822565b90506020020135604051602001610190929190918252602082015260400190565b604051602081830303815290604052805190602001205b9150806101b38161084e565b9150506100ff565b506001541495945050505050565b600281815481106101d957600080fd5b600091825260209091200154905081565b6000818152602081905260408120805460018201546002830154600384018054869586958695606095929460ff8316946101009093046001600160a01b0316939192819061023790610867565b80601f016020809104026020016040519081016040528092919081815260200182805461026390610867565b80156102b05780601f10610285576101008083540402835291602001916102b0565b820191906000526020600020905b81548152906001019060200180831161029357829003601f168201915b50505050509050955095509550955095505091939590929450565b6040518060a00160405280600115158152602001336001600160a01b0316815260200184815260200142815260200183838080601f0160208091040260200160405190810160405280939291908181526020018383808284376000920182905250939094525050868152602081815260409182902084518154928601516001600160a81b0319909316901515610100600160a81b031916176101006001600160a01b039093169290920291909117815590830151600182015560608301516002820155608083015190915060038201906103a59082610906565b5050600280546001810182556000919091527f405787fa12a823e0f2b7631cc41b3ba8828b3321ca811111fa75cd3aa3bb5ace01859055506103e5610467565b600155604051339085907f70a0d3c91852c418811b02c48812447497c35c5dd710185115d35b3a70063cc89061041e90869086906109c6565b60405180910390a37f90004c04698bc3322499a575ed3752dd4abf33e0a7294c06a787a0fe01bea94160015460405161045991815260200190565b60405180910390a150505050565b60025460009080820361047c57506000919050565b60008167ffffffffffffffff811115610497576104976108a1565b6040519080825280602002602001820160405280156104c0578160200160208202803683370190505b50905060005b8281101561051b57600281815481106104e1576104e1610822565b90600052602060002001548282815181106104fe576104fe610822565b6020908102919091010152806105138161084e565b9150506104c6565b505b60018151111561066d578051600060026105388360016109f5565b6105429190610a0e565b905060008167ffffffffffffffff81111561055f5761055f6108a1565b604051908082528060200260200182016040528015610588578160200160208202803683370190505b50905060005b828110156106625760006105a3826002610a30565b90506000856105b38360016109f5565b106105be57816105c9565b6105c98260016109f5565b90508682815181106105dd576105dd610822565b60200260200101518782815181106105f7576105f7610822565b6020026020010151604051602001610619929190918252602082015260400190565b6040516020818303038152906040528051906020012084848151811061064157610641610822565b6020026020010181815250505050808061065a9061084e565b91505061058e565b50925061051d915050565b8060008151811061068057610680610822565b60200260200101519250505090565b600080600080606085870312156106a557600080fd5b84359350602085013567ffffffffffffffff808211156106c457600080fd5b818701915087601f8301126106d857600080fd5b8135818111156106e757600080fd5b8860208260051b85010111156106fc57600080fd5b95986020929092019750949560400135945092505050565b60006020828403121561072657600080fd5b5035919050565b85151581526000602060018060a01b0387168184015285604084015284606084015260a0608084015283518060a085015260005b8181101561077d5785810183015185820160c001528201610761565b50600060c0828601015260c0601f19601f830116850101925050509695505050505050565b600080600080606085870312156107b857600080fd5b8435935060208501359250604085013567ffffffffffffffff808211156107de57600080fd5b818701915087601f8301126107f257600080fd5b81358181111561080157600080fd5b88602082850101111561081357600080fd5b95989497505060200194505050565b634e487b7160e01b600052603260045260246000fd5b634e487b7160e01b600052601160045260246000fd5b60006001820161086057610860610838565b5060010190565b600181811c9082168061087b57607f821691505b60208210810361089b57634e487b7160e01b600052602260045260246000fd5b50919050565b634e487b7160e01b600052604160045260246000fd5b601f82111561090157600081815260208120601f850160051c810160208610156108de5750805b601f850160051c820191505b818110156108fd578281556001016108ea565b5050505b505050565b815167ffffffffffffffff811115610920576109206108a1565b6109348161092e8454610867565b846108b7565b602080601f83116001811461096957600084156109515750858301515b600019600386901b1c1916600185901b1785556108fd565b600085815260208120601f198616915b8281101561099857888601518255948401946001909101908401610979565b50858210156109b65787850151600019600388901b60f8161c191681555b5050505050600190811b01905550565b60208152816020820152818360408301376000818301604090810191909152601f909201601f19160101919050565b80820180821115610a0857610a08610838565b92915050565b600082610a2b57634e487b7160e01b600052601260045260246000fd5b500490565b8082028115828204841417610a0857610a0861083856fea2646970667358221220d0e55e2fee463a5f83cea6e0cc94c152f6ba815c46cceb52dc50e0e858820be764736f6c63430008130033",
  "linkReferences": {},
  "deployedLinkReferences": {}
}