{
  "_format": "hh-sol-artifact-1",
  "contractName": "QuizLens",
  "sourceName": "contracts/QuizLens.sol",
  "abi": [
    {
      "anonymous": false,
      "inputs": [
        {
          "indexed": true,
          "internalType": "bytes32",
          "name": "paperHash",
          "type": "bytes32"
        },
        {
          "indexed": true,
          "internalType": "address",
          "name": "setter",
          "type": "address"
        },
        {
          "indexed": false,
          "internalType": "string",
          "name": "title",
          "type": "string"
        }
      ],
      "name": "Notarized",
      "type": "event"
    },
    {
      "inputs": [
        {
          "internalType": "bytes32",
          "name": "paperHash",
          "type": "bytes32"
        },
        {
          "internalType": "bytes32",
          "name": "reportHash",
          "type": "bytes32"
        },
        {
          "internalType": "string",
          "name": "title",
          "type": "string"
        }
      ],
      "name": "notarize",
      "outputs": [],
      "stateMutability": "nonpayable",
      "type": "function"
    },
    {
      "inputs": [
        {
          "internalType": "bytes32",
          "name": "paperHash",
          "type": "bytes32"
        }
      ],
      "name": "verify",
      "outputs": [
        {
          "internalType": "bool",
          "name": "valid",
          "type": "bool"
        },
        {
          "internalType": "address",
          "name": "setter",
          "type": "address"
        },
        {
          "internalType": "bytes32",
          "name": "reportHash",
          "type": "bytes32"
        },
        {
          "internalType": "uint256",
          "name": "timestamp",
          "type": "uint256"
        },
        {
          "internalType": "string",
          "name": "title",
          "type": "string"
        }
      ],
      "stateMutability": "view",
      "type": "function"
    }
  ],
  "bytecode": "0x608060405234801561001057600080fd5b50610558806100206000396000f3fe608060405234801561001057600080fd5b50600436106100365760003560e01c806375e366161461003b5780639755940b14610068575b600080fd5b61004e610049366004610286565b61007d565b60405161005f95949392919061029f565b60405180910390f35b61007b610076366004610314565b61015e565b005b6000818152602081905260408120805460018201546002830154600384018054869586958695606095929460ff8316946101009093046001600160a01b031693919281906100ca90610394565b80601f01602080910402602001604051908101604052809291908181526020018280546100f690610394565b80156101435780601f1061011857610100808354040283529160200191610143565b820191906000526020600020905b81548152906001019060200180831161012657829003601f168201915b50505050509050955095509550955095505091939590929450565b6040518060a00160405280600115158152602001336001600160a01b0316815260200184815260200142815260200183838080601f0160208091040260200160405190810160405280939291908181526020018383808284376000920182905250939094525050868152602081815260409182902084518154928601516001600160a81b0319909316901515610100600160a81b031916176101006001600160a01b039093169290920291909117815590830151600182015560608301516002820155608083015190915060038201906102389082610433565b50905050336001600160a01b0316847f70a0d3c91852c418811b02c48812447497c35c5dd710185115d35b3a70063cc884846040516102789291906104f3565b60405180910390a350505050565b60006020828403121561029857600080fd5b5035919050565b85151581526000602060018060a01b0387168184015285604084015284606084015260a0608084015283518060a085015260005b818110156102ef5785810183015185820160c0015282016102d3565b50600060c0828601015260c0601f19601f830116850101925050509695505050505050565b6000806000806060858703121561032a57600080fd5b8435935060208501359250604085013567ffffffffffffffff8082111561035057600080fd5b818701915087601f83011261036457600080fd5b81358181111561037357600080fd5b88602082850101111561038557600080fd5b95989497505060200194505050565b600181811c908216806103a857607f821691505b6020821081036103c857634e487b7160e01b600052602260045260246000fd5b50919050565b634e487b7160e01b600052604160045260246000fd5b601f82111561042e57600081815260208120601f850160051c8101602086101561040b5750805b601f850160051c820191505b8181101561042a57828155600101610417565b5050505b505050565b815167ffffffffffffffff81111561044d5761044d6103ce565b6104618161045b8454610394565b846103e4565b602080601f831160018114610496576000841561047e5750858301515b600019600386901b1c1916600185901b17855561042a565b600085815260208120601f198616915b828110156104c5578886015182559484019460019091019084016104a6565b50858210156104e35787850151600019600388901b60f8161c191681555b5050505050600190811b01905550565b60208152816020820152818360408301376000818301604090810191909152601f909201601f1916010191905056fea2646970667358221220286dab2b02b29ac61bb264288f6dc0e25e3845a59362877b9fdff6e21e14e14964736f6c63430008130033",
  "linkReferences": {},
  "deployedLinkReferences": {}
}